:020000040800F2
:1000000000000120B10A0008310900083709000882
:100010003D090008430900084909000800000000E4
:100020000000000000000000000000004F09000870
:100030005B09000800000000670900087309000858
:10004000F90A0008F90A0008F90A0008F90A000884
:10005000F90A0008F90A0008F90A0008F90A000874
:10006000F90A0008F90A0008F90A0008F90A000864
:10007000F90A0008F90A0008F90A0008F90A000854
:10008000F90A0008F90A0008F90A000881090008BD
:1000900095090008F90A0008F90A0008F90A000899
:1000A000F90A0008F90A0008F90A0008F90A000824
:1000B000F90A0008F90A0008A9090008F90A000865
:1000C000F90A0008F90A0008F90A0008F90A000804
:1000D000F90A0008F90A0008F90A0008F90A0008F4
:1000E000F90A0008F90A0008F90A0008F90A0008E4
:1000F000F90A0008F90A0008F90A0008F90A0008D4
:10010000F90A0008F90A0008F90A0008F90A0008C3
:10011000F90A0008F90A0008F90A0008F90A0008B3
:10012000F90A0008F90A0008F90A0008F90A0008A3
:1001300000000000000000000000000000000000BF
:1001400000000000000000000000000000000000AF
:10015000000000000000000000000000000000009F
:10016000000000000000000000000000000000008F
:10017000000000000000000000000000000000007F
:10018000000000000000000000000000000000006F
:10019000000000000000000000000000000000005F
:1001A000000000000000000000000000000000004F
:1001B000000000000000000000000000000000003F
:1001C000000000000000000000000000000000002F
:1001D000000000000000000000000000000000001F
:0401E0005FF8E0F1F3
:1001E40010B5054C237833B9044B13B10448AFF36D
:1001F40000800123237010BD0C00002000000000CB
:100204000446000808B5034B1BB103490348AFF388
:10021400008008BD00000000100000200446000813
:1002240080B584B000AF3B1D00221A605A609A600A
:10023400184B194A1A60174B00229A60154B00227A
:100244001A73144B00221A75124B4FF46022DA61B0
:10025400104B00225A600F4B01221A610D4800F026
:10026400ADFC0346002B01D000F09EFA11237B6005
:100274000123BB600023FB603B1D1946054800F0C9
:100284003FFE0346002B01D000F08EFA00BF10376A
:10029400BD4680BD280000200024014080B584B004
:1002A40000AF3B1D00221A605A609A60184B194A2D
:1002B4001A60174B00229A60154B00221A73144BD4
:1002C40000221A75124B4FF46022DA61104B00229F
:1002D4005A600F4B01221A610D4800F06FFC03466F
:1002E400002B01D000F060FA0B237B600123BB607C
:1002F4000023FB603B1D1946054800F001FE034640
:10030400002B01D000F050FA00BF1037BD4680BD6D
:10031400580000200028014080B58AB000AF786002
:1003240007F1180300221A605A609A60DA607B6849
:100334001B681D4A93420CD11C4B9B691B4A43F416
:1003440000739361194B9B6903F400737B617B69B0
:1003540026E07B681B68164A934221D1134B9B69A4
:10036400124A43F480639361104B9B6903F48063E6
:100374003B613B690D4B9B690C4A43F0100393614D
:100384000A4B9B6903F01003FB60FB680223BB610B
:100394000323FB6107F118031946064801F03EFDEB
:1003A40000BF2837BD4680BD002401400010024034
:1003B400002801400010014080B500AF174B184AD7
:1003C4001A60164B06225A60144B00229A60134B93
:1003D4000022DA60114B4FF4A0221A610F4B4FF444
:1003E40080025A610D4B00221A760C4B00225A7679
:1003F4000A4B00229A76094B0022DA76074B002238
:100404001A77064B01225A77044800F087FF034607
:10041400002B01D000F0C8F900BF80BD8800002087
:100424000064004080B588B000AF786007F1100325
:1004340000221A605A609A60DA607B681B68244A5A
:10044400934241D1234BDB69224A43F00073D361C9
:10045400204BDB6903F00073FB60FB681D4B9B6959
:100464001C4A43F0040393611A4B9B6903F0040391
:10047400BB60BB684FF400633B6100237B610023D6
:10048400BB6107F110031946134801F0C7FC4FF490
:1004940080533B6102237B610323FB6107F110035B
:1004A40019460D4801F0BAFC00220021132001F086
:1004B40065FC132001F08EFC00220021142001F0C1
:1004C4005DFC142001F086FC00BF2037BD4680BDD2
:1004D40000640040001002400008014080B588B06C
:1004E40000AF07F1100300221A605A609A60DA60C4
:1004F400394B9B69384A43F010039361364B9B692F
:1005040003F01003FB60FB68334B9B69324A43F0F2
:1005140020039361304B9B6903F02003BB60BB68ED
:100524002D4B9B692C4A43F0040393612A4B9B692E
:1005340003F004037B607B68274B9B69264A43F0E6
:1005440008039361244B9B6903F008033B603B68F9
:1005540000224FF47041214801F0F4FE4FF6FD7380
:100564003B6103237B6107F1100319461C4801F02A
:1005740055FC48F21F733B6103237B6107F11003B1
:100584001946184801F04AFC40F63F733B610323C7
:100594007B6107F110031946104801F03FFC4FF44A
:1005A40070433B6101237B610123BB610223FB6137
:1005B40007F110031946094801F030FC04233B619C
:1005C40003237B6107F110031946074801F026FC59
:1005D40000BF2037BD4680BD00100240000C014022
:1005E40000100140000801400014014080B500AF34
:1005F400124B134A1A60114B124A5A600F4B0022D5
:100604009A600E4B0022DA600C4B4FF480421A6160
:100614000A4B00225A61094B00229A61074B0022BF
:10062400DA61064B00221A62044801F0BDFE03465B
:10063400002B01D000F0B8F800BF80BDB00000204E
:1006440000540040A086010080B588B000AF7860F7
:1006540007F1100300221A605A609A60DA607B681E
:100664001B68154A934223D1144B9B69134A43F0E8
:1006740008039361114B9B6903F00803FB60FB685B
:10068400C0233B6112237B610323FB6107F1100349
:1006940019460B4801F0C2FB084BDB69074A43F4D7
:1006A4000013D361054BDB6903F40013BB60BB6823
:1006B40000BF2037BD4680BD0054004000100240FA
:1006C400000C014080B500AF00F016FA00F00FF8FE
:1006D400FFF704FFFFF7A4FDFFF7E0FDFFF76CFE53
:1006E400FFF784FF00F06EF900F06EF8FEE780B5C6
:1006F40096B000AF07F1300328220021184603F01A
:1007040077FF07F11C0300221A605A609A60DA60CE
:100714001A613B1D00221A605A609A60DA601A61FD
:100724005A6101233B634FF480337B630023BB6333
:1007340001233B640223FB644FF480333B654FF495
:10074400E0137B6507F13003184601F0F1FF03461F
:10075400002B01D000F028F80F23FB6102233B6239
:1007640000237B624FF48063BB620023FB6207F1CA
:100774001C030221184602F049FB0346002B01D05A
:1007840000F012F802237B604FF40043FB603B1D32
:10079400184602F05BFD0346002B01D000F004F87C
:1007A40000BF5837BD4680BD80B400AF72B600BFED
:1007B400FEE780B483B000AF7860396000BF0C37C7
:1007C400BD4680BC7047000080B500AF174B184A87
:1007D4001A60164B4FF482725A60144B00229A60CE
:1007E400124B0022DA60114B00221A610F4B0022D7
:1007F4005A610E4B4FF400729A610C4B3822DA6145
:100804000A4B00221A62094B00225A62074B00224B
:100814009A62064B0A22DA62044802F02DFE03466D
:10082400002B01D0FFF7C0FF00BF80BD04010020F2
:100834000030014080B588B000AF786007F1100344
:1008440000221A605A609A60DA607B681B681B4A4F
:1008540093422FD11A4B9B69194A43F480539361F5
:10086400174B9B6903F48053FB60FB68144B9B6933
:10087400134A43F004039361114B9B6903F004038F
:10088400BB60BB68A0233B6102237B610323FB6144
:1008940007F1100319460B4801F0C0FA40233B61ED
:1008A40000237B610023BB6107F11003194605484F
:1008B40001F0B4FA00BF2037BD4680BD00300140CE
:1008C400001002400008014080B485B000AF154B11
:1008D4009B69144A43F001039361124B9B6903F033
:1008E4000103BB60BB680F4BDB690E4A43F08053C6
:1008F400D3610C4BDB6903F080537B607B680A4B4C
:100904005B68FB60FB6823F0E063FB60FB6843F01B
:100914000073FB60044AFB68536000BF1437BD4694
:1009240080BC7047001002400000014080B400AF5A
:10093400FEE780B400AFFEE780B400AFFEE780B40A
:1009440000AFFEE780B400AFFEE780B400AF00BFA5
:10095400BD4680BC704780B400AF00BFBD4680BCBC
:10096400704780B400AF00BFBD4680BC704780B5FF
:1009740000AF00F007F900BF80BD000080B500AFF4
:10098400024800F0E3FE00BF80BD00BF88000020E5
:1009940080B500AF024800F0D9FE00BF80BD00BFA3
:1009A4008800002080B500AF024802F0BFFF00BFFE
:1009B40080BD00BF5C01002080B400AF00BFBD4615
:1009C40080BC704780B586B000AF07F108030022F1
:1009D4001A605A609A60DA603B4600221A605A60D4
:1009E4001D4B1E4A1A601C4B47225A601A4B0022A8
:1009F4009A60194B40F2E732DA60174B00221A6111
:100A0400154B00229A61144802F0BCFE0346002BE9
:100A140001D0FFF7C9FE4FF48053BB6007F1080310
:100A240019460D4803F08AF80346002B01D0FFF75E
:100A3400BBFE00233B6000237B603B46194606480F
:100A440003F0D0FC0346002B01D0FFF7ADFE00BF3E
:100A54001837BD4680BD00BF5C010020000800407F
:100A640080B584B000AF78607B681B680D4A934200
:100A740013D10D4BDB690C4A43F00403D3610A4BD9
:100A8400DB6903F00403FB60FB68002200211E20E5
:100A940001F074F91E2001F09DF900BF1037BD4626
:100AA40080BD00BF0008004000100240FFF784FF33
:100AB4000B480C490C4A002302E0D458C4500433B8
:100AC400C4188C42F9D3094A094C002301E013608D
:100AD4000432A242FBD303F067FDFFF7F3FD704736
:100AE400000000200C000020444A00080C000020F4
:100AF400A8010020FEE7000080B500AF084B1B688A
:100B0400074A43F010031360032001F017F90F2084
:100B140000F008F8FFF7D8FE0023184680BD00BF98
:100B24000020024080B582B000AF7860124B1A6892
:100B3400124B1B7819464FF47A73B3FBF1F3B2FBF3
:100B4400F3F3184601F05EF90346002B01D00123AC
:100B54000EE07B680F2B0AD8002279684FF0FF3033
:100B640001F00CF9064A7B681360002300E00123BE
:100B740018460837BD4680BD00000020080000204C
:100B84000400002080B400AF054B1B781A46054BC7
:100B94001B681344034A136000BFBD4680BC704702
:100BA40008000020A401002080B400AF024B1B68A1
:100BB4001846BD4680BC7047A401002080B586B0AD
:100BC40000AF78600023FB7500233B610023BB600A
:100BD4000023FB607B68002B01D1012388E17B6843
:100BE4001B688C4A93420ED07B681B688A4A9342E6
:100BF40009D07B681B68894A934204D040F2A9114A
:100C04008748FFF7D6FD7B685B68002B09D07B68BB
:100C14005B68B3F5006F04D04FF4D5718048FFF7DB
:100C2400C8FD7B689B68002B09D07B689B68B3F583
:100C3400807F04D040F2AB117948FFF7BAFD7B689E
:100C44001B7B002B08D07B681B7B012B04D04FF44B
:100C5400D6717348FFF7ADFD7B68DB69002B44D088
:100C64007B68DB69B3F5003F3FD07B68DB69B3F594
:100C7400C02F3AD07B68DB69B3F5002F35D07B6891
:100C8400DB69B3F5202F30D07B68DB69B3F5402FE7
:100C94002BD07B68DB69002B27D07B68DB69B3F53D
:100CA400003F22D07B68DB69B3F5C02F1DD07B6881
:100CB400DB69B3F5202F18D07B68DB69B3F5402FCF
:100CC40013D07B68DB69B3F5802F0ED07B68DB69BA
:100CD400B3F5402F09D07B68DB69B3F5602F04D0EE
:100CE40040F2AD114E48FFF764FD7B689B68002B12
:100CF4002AD07B681B69002B03D07B681B69102BEF
:100D040004D940F2B1114648FFF753FD7B681B7DBF
:100D1400002B08D07B681B7D012B04D04FF4D971C4
:100D24003F48FFF746FD7B681B7D002B0CD07B689A
:100D34009B69002B03D07B689B69082B04D940F284
:100D4400B5113748FFF735FD7B689B6A002B09D145
:100D54007B680022DA627B68002283F824207868AA
:100D6400FFF7DAFA786800F097FA0346FB757B68B8
:100D74009B6A03F01003002B40F0B180FB7D002B35
:100D840040F0AD807B689B6A23F4885323F0020310
:100D940043F002027B689A627B685A687B681B682E
:100DA4001E498B420AD17B68DB69B3F5402F02D020
:100DB4007B68DB6904E04FF4002301E07B68DB69B6
:100DC4001A437B681B7B5B001343BA681343BB6005
:100DD4007B689B68B3F5807F03D07B689B68012B9D
:100DE40002D14FF4807300E000233A6913433B615E
:100DF4007B681B7D012B21D17B681B7B002B11D1D0
:100E04007B689B69013B5A033B69134343F40063CA
:100E14003B6113E00024014000280140003C0140F4
:100E24001C4600087B689B6A43F020027B689A6238
:100E34007B68DB6A43F001027B68DA627B681B68CB
:100E44005B6823F469417B681B683A690A435A600A
:100E54007B681B689A68284B13407A681268B968E3
:100E64000B4393607B689B68B3F5807F03D07B68FA
:100E74009B68012B04D17B681B69013B1B05FB604C
:100E84007B681B68DB6A23F470017B681B68FA6863
:100E94000A43DA627B681B689A68184B1340BA6885
:100EA4009A420BD17B680022DA627B689B6A23F04A
:100EB400030343F001027B689A6218E07B689B6A33
:100EC40023F0120343F010027B689A627B68DB6AAA
:100ED40043F001027B68DA620123FB7507E07B685B
:100EE4009B6A43F010027B689A620123FB75FB7DC9
:100EF40018461837BD4680BDFDF7E1FFFE0E1FFF03
:100F040080B584B000AF786039600023FB730023A0
:100F1400BB607B681B688B4A93420ED07B681B685E
:100F2400894A934209D07B681B68884A934204D05B
:100F340040F2D6718648FFF73CFC3B681B68002BE7
:100F440048D03B681B68012B44D03B681B68022BCC
:100F540040D03B681B68032B3CD03B681B68042BC8
:100F640038D03B681B68052B34D03B681B68062BC4
:100F740030D03B681B68072B2CD03B681B68082BC0
:100F840028D03B681B68092B24D03B681B680A2BBC
:100F940020D03B681B680B2B1CD03B681B680C2BB8
:100FA40018D03B681B680D2B14D03B681B680E2BB4
:100FB40010D03B681B680F2B0CD03B681B68102BB0
:100FC40008D03B681B68112B04D040F2D7716048ED
:100FD400FFF7EFFB3B685B68012B40D03B685B6825
:100FE400022B3CD03B685B68032B38D03B685B68C2
:100FF400042B34D03B685B68052B30D03B685B68BE
:10100400062B2CD03B685B68072B28D03B685B68B9
:10101400082B24D03B685B68092B20D03B685B68B5
:101024000A2B1CD03B685B680B2B18D03B685B68B1
:101034000C2B14D03B685B680D2B10D03B685B68AD
:101044000E2B0CD03B685B680F2B08D03B685B68A9
:10105400102B04D04FF4FB613D48FFF7AAFB3B681B
:101064009B68002B20D03B689B68012B1CD03B68FD
:101074009B68022B18D03B689B68032B14D03B68F9
:101084009B68042B10D03B689B68052B0CD03B68F5
:101094009B68062B08D03B689B68072B04D040F262
:1010A400D9712B48FFF785FB7B6893F82430012B1B
:1010B40001D10223E5E07B68012283F824203B6808
:1010C4005B68062B1CD87B681B68596B3B685A68A5
:1010D40013469B001344053B1F2202FA03F3DB4330
:1010E40019403B6818683B685A6813469B001344D0
:1010F400053B00FA03F27B681B680A435A6345E028
:101104003B685B680C2B25D87B681B68196B3B68B4
:101114005A6813469B001344233B1F2202FA03F32D
:10112400DB4319403B6818683B685A6813469B00C8
:101134001344233B00FA03F27B681B680A431A63D7
:1011440024E000BF0024014000280140003C01408D
:101154001C4600087B681B68D96A3B685A681346BA
:101164009B001344413B1F2202FA03F3DB43194063
:101174003B6818683B685A6813469B001344413B1C
:1011840000FA03F27B681B680A43DA623B681B6857
:10119400092B1CD97B681B68D9683B681A681346FD
:1011A4005B0013441E3B072202FA03F3DB4319409E
:1011B4003B6898683B681A6813465B0013441E3BFF
:1011C40000FA03F27B681B680A43DA6019E07B6863
:1011D4001B6819693B681A6813465B0013440722AD
:1011E40002FA03F3DB4319403B6898683B681A68CA
:1011F40013465B00134400FA03F27B681B680A433E
:101204001A613B681B68102B03D03B681B68112BC9
:1012140032D17B681B681D4A934225D17B681B68C9
:101224009B6803F40003002B26D17B681B689A6833
:101234007B681B6842F400029A603B681B68102BB1
:101244001AD1134B1B68134AA2FB03239A0C1346AF
:101254009B0013445B00BB6002E0BB68013BBB60C6
:10126400BB68002BF9D107E07B689B6A43F020023E
:101274007B689A620123FB737B68002283F8242035
:10128400FB7B18461037BD4680BD00BF00240140DB
:101294000000002083DE1B4380B584B000AF78607B
:1012A4000023FB607B681B689B6803F00103012B30
:1012B4002ED17B681B689A687B681B6822F0010248
:1012C4009A60FFF771FCF8601BE0FFF76DFC0246C3
:1012D400FB68D31A022B14D97B681B689B6803F044
:1012E4000103012B0DD17B689B6A43F010027B68DC
:1012F4009A627B68DB6A43F001027B68DA6201234D
:1013040007E07B681B689B6803F00103012BDCD0BA
:10131400002318461037BD4680BD000080B584B058
:1013240000AF78607B68002B01D1012309E27B6860
:101334001B688F4A934204D040F21D118D48FFF779
:1013440038FA7B681B7E002B08D07B681B7E012B40
:1013540004D04FF48F718748FFF72BFA7B685B7ECC
:10136400002B08D07B685B7E012B04D040F21F1158
:101374008048FFF71EFA7B689B7E002B08D07B68B1
:101384009B7E012B04D04FF490717A48FFF711FA39
:101394007B68DB7E002B08D07B68DB7E012B04D0CE
:1013A40040F221117348FFF704FA7B681B7F002B7E
:1013B40008D07B681B7F012B04D04FF491716D48DA
:1013C400FFF7F7F97B685B7F002B08D07B685B7FB6
:1013D400012B04D040F223116648FFF7EAF97B6839
:1013E4009B68002B13D07B689B68B3F1804F0ED0B1
:1013F4007B689B68B3F1004F09D07B689B68B3F1AD
:10140400404F04D04FF492715A48FFF7D2F97B68E9
:10141400DB68002B13D07B68DB68B3F1807F0ED0D0
:101424007B68DB68B3F1007F09D07B68DB68B3F1CC
:10143400407F04D040F225114E48FFF7BAF97B688B
:101444001B69002B4FD07B681B69B3F5803F4AD0E2
:101454007B681B69B3F5003F45D07B681B69B3F516
:10146400403F40D07B681B69B3F5802F3BD07B683D
:101474001B69B3F5A02F36D07B681B69B3F5C02F69
:1014840031D07B681B69B3F5E02F2CD07B681B69D6
:10149400B3F5002F27D07B681B69B3F5102F22D03A
:1014A4007B681B69B3F5202F1DD07B681B69B3F5DE
:1014B400302F18D07B681B69B3F5402F13D07B689D
:1014C4001B69B3F5502F0ED07B681B69B3F5602FF1
:1014D40009D07B681B69B3F5702F04D04FF4937166
:1014E4002448FFF766F97B685B69002B27D07B688B
:1014F4005B69B3F5801F22D07B685B69B3F5001F7D
:101504001DD07B685B69B3F5401F18D07B685B69AD
:10151400B3F5800F13D07B685B69B3F5A00F0ED0D1
:101524007B685B69B3F5C00F09D07B685B69B3F571
:10153400E00F04D040F227110E48FFF73AF97B6818
:101544005B68002B04D07B685B68B3F5806F04D9BB
:101554004FF494710748FFF72CF97B6893F8203017
:10156400DBB2002B08D17868FEF75CFF04E000BF13
:1015740000640040804600087B681B681A687B682A
:101584001B6842F001021A60FFF70EFBF86012E0DC
:10159400FFF70AFB0246FB68D31A0A2B0BD97B68B8
:1015A4005B6A43F400327B685A627B68052283F8E5
:1015B40020200123C5E07B681B685B6803F00103FE
:1015C400002BE5D07B681B681A687B681B6822F0D7
:1015D40002021A60FFF7E8FAF86012E0FFF7E4FA93
:1015E4000246FB68D31A0A2B0BD97B685B6A43F467
:1015F40000327B685A627B68052283F8202001232D
:101604009FE07B681B685B6803F00203002BE5D155
:101614007B681B7E012B08D17B681B681A687B687A
:101624001B6842F080021A6007E07B681B681A6836
:101634007B681B6822F080021A607B685B7E012B4A
:1016440008D17B681B681A687B681B6842F04002FB
:101654001A6007E07B681B681A687B681B6822F0C5
:1016640040021A607B689B7E012B08D17B681B6853
:101674001A687B681B6842F020021A6007E07B68E6
:101684001B681A687B681B6822F020021A607B685A
:10169400DB7E012B08D17B681B681A687B681B689A
:1016A40022F010021A6007E07B681B681A687B68E6
:1016B4001B6842F010021A607B681B7F012B08D163
:1016C4007B681B681A687B681B6842F008021A6012
:1016D40007E07B681B681A687B681B6822F00802B5
:1016E4001A607B685B7F012B08D17B681B681A68D2
:1016F4007B681B6842F004021A6007E07B681B6881
:101704001A687B681B6822F004021A607B689A6876
:101714007B68DB681A437B681B691A437B685B69D7
:1017240042EA03017B685B685A1E7B681B680A43B4
:10173400DA617B6800225A627B68012283F82020E8
:10174400002318461037BD4680BD00BF80B58AB05F
:1017540000AF786000237B627B681B685B693B6237
:101764007B681B685B68FB617B681B689B68BB616B
:101774007B681B68DB687B617B681B681B693B615A
:101784007B681B689B69FB603B6A03F00103002BC9
:101794007CD0BB6903F00103002B23D07B681B685A
:1017A40001229A60BB6903F00203002B03D078681E
:1017B40000F083F916E0BB6903F00403002B04D0A6
:1017C4007B6A43F400637B620CE0BB6903F00803AB
:1017D400002B04D07B6A43F480537B6202E0786878
:1017E40000F086F9BB6903F48073002B24D07B6876
:1017F4001B684FF480729A60BB6903F40073002B7A
:1018040003D0786800F062F916E0BB6903F48063E2
:10181400002B04D07B6A43F400537B620CE0BB6969
:1018240003F40063002B04D07B6A43F480437B629F
:1018340002E0786800F065F9BB6903F48033002B9B
:1018440024D07B681B684FF480329A60BB6903F430
:101854000033002B03D0786800F041F916E0BB692F
:1018640003F48023002B04D07B6A43F400437B629F
:101874000CE0BB6903F40023002B04D07B6A43F41F
:1018840080337B6202E0786800F044F93B6A03F03D
:101894000803002B0CD07B6903F01003002B07D046
:1018A4007B6A43F400737B627B681B681022DA60F6
:1018B4003B6A03F00403002B0BD07B6903F008039D
:1018C400002B06D07B681B680822DA60786800F079
:1018D40033F93B6A03F00203002B09D07B681B68D1
:1018E400DB6803F00303002B02D0786800F01BF9D7
:1018F4003B6A03F04003002B0CD03B6903F0100358
:10190400002B07D07B6A43F480637B627B681B688F
:1019140010221A613B6A03F02003002B0BD03B69B1
:1019240003F00803002B06D07B681B6808221A61A9
:10193400786800F013F93B6A03F01003002B09D018
:101944007B681B681B6903F00303002B02D07868D3
:1019540000F0FBF83B6A03F40033002B0BD0FB6967
:1019640003F01003002B06D07B681B6810225A601A
:10197400786800F0FCF83B6A03F48033002B0BD04A
:10198400FB6903F00803002B06D07B681B68082260
:101994005A60786800F0F4F83B6A03F40043002BC3
:1019A4007BD0FB6903F00403002B72D03B6A03F481
:1019B4008073002B08D0FB6803F00103002B03D0D5
:1019C4007B6A43F001037B623B6A03F40073002BE0
:1019D40008D0FB6803F00203002B03D07B6A43F0BA
:1019E40002037B623B6A03F48063002B08D0FB682C
:1019F40003F00403002B03D07B6A43F004037B62EF
:101A04003B6A03F40063002B43D0FB6803F07003CC
:101A1400002B3ED0FB6803F07003602B2BD0602BAF
:101A24002ED8502B22D0502B2AD8402B19D0402B03
:101A340026D8302B10D0302B22D8102B02D0202BBC
:101A440005D01DE07B6A43F008037B6219E07B6AE2
:101A540043F010037B6214E07B6A43F020037B6253
:101A64000FE07B6A43F040037B620AE07B6A43F049
:101A740080037B6205E07B6A43F480737B6200E051
:101A840000BF7B681B689A697B681B6822F0700240
:101A94009A617B681B6804225A607B6A002B08D019
:101AA4007B685A6A7B6A1A437B685A62786800F0DA
:101AB40070F800BF2837BD4680BD80B483B000AF46
:101AC400786000BF0C37BD4680BC704780B483B0DB
:101AD40000AF786000BF0C37BD4680BC704780B44F
:101AE40083B000AF786000BF0C37BD4680BC704740
:101AF40080B483B000AF786000BF0C37BD4680BCB3
:101B0400704780B483B000AF786000BF0C37BD4627
:101B140080BC704780B483B000AF786000BF0C37DE
:101B2400BD4680BC704780B483B000AF786000BF0E
:101B34000C37BD4680BC704780B483B000AF78607A
:101B440000BF0C37BD4680BC704780B483B000AF83
:101B5400786000BF0C37BD4680BC704780B483B04A
:101B640000AF786000BF0C37BD4680BC704780B4BE
:101B740083B000AF786000BF0C37BD4680BC7047AF
:101B840080B483B000AF786000BF0C37BD4680BC22
:101B9400704780B483B000AF786000BF0C37BD4697
:101BA40080BC704780B485B000AF78607B6803F078
:101BB4000703FB600C4BDB68BB60BA684FF6FF039E
:101BC4001340BB60FB681A02BB68134343F0BF6356
:101BD40043F40033BB60044ABB68D36000BF1437CE
:101BE400BD4680BC704700BF00ED00E080B400AF8C
:101BF400044BDB681B0A03F007031846BD4680BC90
:101C0400704700BF00ED00E080B483B000AF03462E
:101C1400FB7197F90730002B0BDBFB7903F01F02F4
:101C2400064997F907305B09012000FA02F241F8EE
:101C3400232000BF0C37BD4680BC704700E100E0A4
:101C440080B483B000AF03463960FB7197F9073065
:101C5400002B0ADB3B68DAB20C4997F90730120112
:101C6400D2B20B4483F800230AE03B68DAB2084995
:101C7400FB7903F00F03043B1201D2B20B441A7632
:101C840000BF0C37BD4680BC704700BF00E100E0D8
:101C940000ED00E080B489B000AFF860B9607A600C
:101CA400FB6803F00703FB61FB69C3F10703042B23
:101CB40028BF0423BB61FB690433062B02D9FB69EB
:101CC400033B00E000237B614FF0FF32BB6902FA63
:101CD40003F3DA43BB681A407B699A404FF0FF3143
:101CE4007B6901FA03F3D9437B680B40134318461D
:101CF4002437BD4680BC704780B582B000AF7860A1
:101D04007B68013BB3F1807F01D301230FE00A4AD2
:101D14007B68013B53600F214FF0FF30FFF790FFCA
:101D2400054B00229A60044B07221A6000231846D0
:101D34000837BD4680BD00BF10E000E080B582B02A
:101D440000AF78607B68072B0FD07B68062B0CD024
:101D54007B68052B09D07B68042B06D07B68032B9A
:101D640003D091210448FEF724FD7868FFF71AFF99
:101D740000BF0837BD4680BDE446000880B586B084
:101D840000AF0346B9607A60FB7300237B617B6814
:101D94000F2B03D9A9210E48FEF70BFDBB680F2BAF
:101DA40003D9AA210A48FEF704FDFFF71FFF786153
:101DB4007A68B9687869FFF76DFF024697F90F30C2
:101DC40011461846FFF73CFF00BF1837BD4680BDDB
:101DD400E446000880B582B000AF0346FB7197F972
:101DE4000730002B03DABD210548FEF7E2FC97F922
:101DF40007301846FFF708FF00BF0837BD4680BD0F
:101E0400E446000880B582B000AF78607868FFF7D8
:101E140073FF034618460837BD4680BD80B58AB0B7
:101E240000AF7860396000237B6200233B627B68EB
:101E3400944A93421BD07B68934A934217D07B68A1
:101E4400924A934213D07B68914A93420FD07B68A5
:101E5400904A93420BD07B688F4A934207D07B68A9
:101E64008E4A934203D0BD218D48FEF7A2FC3B6805
:101E74001B689BB2002B05D03B681B681B0C1B0422
:101E8400002B03D0BE218648FEF793FC3B685B68B9
:101E9400002B00F035823B685B68012B00F0308238
:101EA4003B685B68112B00F02B823B685B68022B5C
:101EB40000F026823B685B68122B00F021823B68AD
:101EC4005B68784A934200F01B823B685B68764A01
:101ED400934200F015823B685B68744A934200F0B9
:101EE4000F823B685B68724A934200F009823B6848
:101EF4005B68704A934200F003823B685B686E4AF9
:101F0400934200F0FD813B685B68032B00F0F8818D
:101F1400BF216348FEF74DFCF2E101227B6A02FA1D
:101F240003F3FB613B681B68FA691340BB61BA6940
:101F3400FB699A4240F0E1817B68524A93421BD08C
:101F44007B68514A934217D07B68504A934213D01E
:101F54007B684F4A93420FD07B684E4A93420BD022
:101F64007B684D4A934207D07B684C4A934203D026
:101F7400CD214B48FEF71DFC3B685B684E4A9342FB
:101F840000F0C6804C4A934200F2EC80474A9342E8
:101F940000F0BE80454A934200F2E480454A9342F1
:101FA40000F0B680434A934200F2DC803E4A9342FA
:101FB40000F0AE803C4A934200F2D4803C4A934203
:101FC40000F0A6803A4A934200F2CC80122B2BD820
:101FD400122B00F2C78001A252F823F01521000849
:101FE40035200008C1200008632100086921000889
:101FF4006921000869210008692100086921000895
:102004006921000869210008692100086921000884
:102014006921000869210008692100086921000874
:102024005D200008EB2000081E4A934270D099E01E
:102034003B68DB68022B0BD03B68DB68012B07D0C5
:102044003B68DB68032B03D0D5211548FEF7B1FBB1
:102054003B68DB683B6286E03B68DB68022B0BD0A5
:102064003B68DB68012B07D03B68DB68032B03D09C
:10207400DC210B48FEF79DFB3B68DB6804333B62C5
:1020840071E000BF00080140000C01400010014055
:102094000014014000180140001C014000200140D0
:1020A4004C470008000011100000211000003110FE
:1020B4000000121000002210000032103B68DB68A0
:1020C400022B0BD03B68DB68012B07D03B68DB6835
:1020D400032B03D0E3219148FEF76BFB3B68DB68DD
:1020E40008333B623FE03B68DB68022B0BD03B6864
:1020F400DB68012B07D03B68DB68032B03D0EA21A4
:102104008648FEF756FB3B68DB680C333B622AE0EB
:102114003B689B68002B0BD03B689B68012B07D066
:102124003B689B68022B03D0F7217C48FEF741FBF8
:102134003B689B68002B02D104233B6213E03B689D
:102144009B68012B05D108233B627B68FA691A61FD
:1021540009E008233B627B68FA695A6103E00023C3
:102164003B6200E000BFBB69FF2B01D87B6801E044
:102174007B6804337B61BB69FF2B02D87B6A9B00BD
:1021840002E07B6A083B9B003B617B691A680F2174
:102194003B6901FA03F3DB431A40396A3B6901FAEC
:1021A40003F31A437B691A603B685B6803F080534E
:1021B400002B00F0A2805A4B9B69594A43F001035B
:1021C4009361574B9B6903F00103BB60BB68554A9D
:1021D4007B6A9B08023352F82330FB607B6A03F06E
:1021E40003039B000F2202FA03F3DB43FA68134054
:1021F400FB607B684C4A93421FD07B684B4A9342F6
:1022040019D07B684A4A934213D07B68494A934267
:102214000DD07B68484A934207D07B68474A934273
:1022240001D105230AE0062308E0042306E0032382
:1022340004E0022302E0012300E000237A6A02F0B2
:10224400030292009340FA681343FB6035497B6AAA
:102254009B080233FA6841F823203B685B6803F467
:102264008013002B06D0364B9A683549BB6913435B
:102274008B6006E0324B9A68BB69DB4330491340FC
:102284008B603B685B6803F40013002B06D02C4B77
:10229400DA682B49BB691343CB6006E0284BDA6844
:1022A400BB69DB4326491340CB603B685B6803F49E
:1022B4000033002B06D0224B5A682149BB691343D3
:1022C4004B6006E01E4B5A68BB69DB431C49134054
:1022D4004B603B685B6803F48033002B06D0184BDB
:1022E4001A681749BB6913430B6006E0144B1A685C
:1022F400BB69DB43124913400B607B6A01337B6289
:102304003B681A687B6A22FA03F3002B7FF405AE5C
:1023140000BF00BF2837BD4680BD00BF4C47000842
:10232400001002400000014000080140000C014080
:10233400001001400014014000180140001C01403D
:102344000004014080B582B000AF78600B467B800A
:1023540013467B707B88002B04D07B881B0C1B04EA
:10236400002B04D04FF4EA710E48FEF722FA7B7872
:10237400002B07D07B78012B04D040F2D5110948FB
:10238400FEF717FA7B78002B03D07A887B681A61F2
:1023940003E07B881A047B681A6100BF0837BD46D6
:1023A40080BD00BF4C47000880B584B000AF7860A2
:1023B4007B68002B01D10123B6E17B681B689C4A32
:1023C400934209D07B681B689A4A934204D040F236
:1023D400DB119948FEF7EDF97B685B68002B04D0AC
:1023E4007B685B68954A934204D94FF4EE71924836
:1023F400FEF7DFF97B689B68002B09D07B689B683C
:10240400B3F5804F04D040F2DD118B48FEF7D1F9CB
:102414007B68DB6823F47F7323F00303002B04D071
:102424004FF4EF718448FEF7C4F97B681B69B3F578
:10243400804F09D07B681B69B3F5404F04D040F24C
:10244400DF117D48FEF7B5F97B685B69002B08D086
:102454007B685B69012B04D04FF4F0717648FEF77A
:10246400A8F97B689B6923F0FE03002B04D040F29B
:10247400E1117148FEF79DF97B68DB69002B08D0F8
:102484007B68DB69402B04D04FF4F1716A48FEF796
:1024940090F97B681B6A002B08D07B681B6A802B31
:1024A40004D040F2E3116448FEF783F97B6893F8A3
:1024B4003D30DBB2002B06D17B68002283F83C2040
:1024C4007868FEF7C1F87B68242283F83D207B6896
:1024D4001B681A687B681B6822F001021A607B681B
:1024E4001B681A687B681B6842F400421A607B68A8
:1024F4001B681A687B681B6822F400421A6000F0AB
:1025040073FEF8607B685B684D4A934207D8FB68AA
:102514004C4A934294BF01230023DBB206E0FB68DC
:10252400494A934294BF01230023DBB2002B01D01C
:102534000123F9E0FB68454AA2FB03239B0CBB6023
:102544007B681B685B6823F03F017B681B68BA6883
:102554000A435A607B681B681B6A23F03F017B684F
:102564005B68374A934202D8BB68013309E0BB6811
:102574004FF4967202FB03F3354AA2FB03239B0933
:1025840001337A6812680B4313627B681B68DB694A
:1025940023F44F4222F0FF027B685B6828498B4298
:1025A40019D8FB68591E7B685B685B00B1FBF3F3C9
:1025B400591C40F6FC730B40002B0AD0FB68591ED3
:1025C4007B685B685B00B1FBF3F30133C3F30B037C
:1025D40063E0042361E07B689B68002B11D1FB68F6
:1025E400581E7B6859680B465B000B44B0FBF3F341
:1025F4000133C3F30B03002B0CBF01230023DBB215
:1026040012E0FB68581E7B6859680B469B000B441C
:1026140099000B44B0FBF3F30133C3F30B03002B1A
:102624000CBF01230023DBB2002B13D0012334E0C1
:102634000054004000580040B0470008801A0600CB
:10264400A08601007F841E00FF083D0083DE1B433B
:10265400D34D62107B689B68002B0ED1FB68581E1B
:102664007B6859680B465B000B44B0FBF3F3013302
:10267400C3F30B0343F400430FE0FB68581E7B686D
:1026840059680B469B000B4499000B44B0FBF3F3D1
:102694000133C3F30B0343F44043796809681343DC
:1026A400CB617B681B681B6823F0C0017B68DA6917
:1026B4007B681B6A1A437B681B680A431A607B6841
:1026C4001B689B6823F4034323F0FF037A681169B2
:1026D4007A68D26811437A6812680B4393607B6806
:1026E4001B68DB6823F0FF017B685A697B689B6980
:1026F4001A437B681B680A43DA607B681B681A68A4
:102704007B681B6842F001021A607B6800221A642D
:102714007B68202283F83D207B6800221A637B6853
:10272400002283F83E20002318461037BD4680BDA2
:1027340080B586B000AF78607B68002B01D101239F
:102744005AE37B681B68002B1CD07B681B6803F072
:102754000103002B16D17B681B6803F00203002BD6
:1027640010D17B681B6803F00803002B0AD17B6837
:102774001B6803F00403002B04D140F265118F4859
:10278400FEF717F87B681B6803F00103002B00F0C9
:102794009A807B685B68002B0ED07B685B68B3F51E
:1027A400803F09D07B685B68B3F5A02F04D040F26A
:1027B4006B118248FDF7FDFF814B5B6803F00C034E
:1027C400042B0CD07E4B5B6803F00C03082B12D156
:1027D4007B4B5B6803F48033B3F5803F0BD1784BBC
:1027E4001B6803F40033002B6CD07B685B68002B00
:1027F40068D1012300E37B685B68B3F5803F06D1B1
:102804006F4B1B686E4A43F4803313602EE07B6881
:102814005B68002B0CD16A4B1B68694A23F4803334
:102824001360674B1B68664A23F4802313601DE022
:102834007B685B68B3F5A02F0CD1614B1B68604AC1
:1028440043F4802313605E4B1B685D4A43F480337A
:1028540013600BE05A4B1B68594A23F4803313600E
:10286400574B1B68564A23F4802313607B685B68CC
:10287400002B13D0FEF798F9386108E0FEF794F9BD
:1028840002463B69D31A642B01D90323B4E24C4BAF
:102894001B6803F40033002BF0D014E0FEF784F936
:1028A400386108E0FEF780F902463B69D31A642BCD
:1028B40001D90323A0E2424B1B6803F40033002B2D
:1028C400F0D100E000BF7B681B6803F00203002B1B
:1028D40000F080807B681B69002B08D07B681B6933
:1028E400012B04D040F29F113448FDF762FF7B684E
:1028F4005B691F2B04D94FF4D0713048FDF759FFA1
:102904002F4B5B6803F00C03002B0BD02C4B5B6844
:1029140003F00C03082B1CD1294B5B6803F48033B0
:10292400002B16D1264B1B6803F00203002B05D0A5
:102934007B681B69012B01D001235DE2204B1B68DE
:1029440023F0F8027B685B69DB001D4913430B60CD
:1029540040E07B681B69002B20D01A4B01221A60CF
:10296400FEF722F9386108E0FEF71EF902463B69DA
:10297400D31A022B01D903233EE2114B1B6803F047
:102984000203002BF0D00E4B1B6823F0F8027B6887
:102994005B69DB000A4913430B601BE0094B00220F
:1029A4001A60FEF701F938610EE0FEF7FDF8024601
:1029B4003B69D31A022B07D903231DE214480008EC
:1029C40000100240000042427D4B1B6803F00203EA
:1029D400002BEAD17B681B6803F00803002B40D06E
:1029E4007B689B69002B08D07B689B69012B04D012
:1029F4004FF4F0717348FDF7DCFE7B689B69002B94
:102A040019D0714B01221A60FEF7CEF8386108E044
:102A1400FEF7CAF802463B69D31A022B01D90323F5
:102A2400EAE1674B5B6A03F00203002BF0D001205C
:102A340000F0EEFB15E0644B00221A60FEF7B4F8D8
:102A4400386108E0FEF7B0F802463B69D31A022B5E
:102A540001D90323D0E15A4B5B6A03F00203002B34
:102A6400F0D17B681B6803F00403002B00F0BF80E7
:102A74000023FB757B68DB68002B0CD07B68DB686C
:102A8400012B08D07B68DB68052B04D040F20F21B2
:102A94004C48FDF78EFE4A4BDB6903F08053002B54
:102AA4000DD1474BDB69464A43F08053D361444B15
:102AB400DB6903F08053BB60BB680123FB75434BA8
:102AC4001B6803F48073002B18D1404B1B683F4AEA
:102AD40043F480731360FEF767F8386108E0FEF78B
:102AE40063F802463B69D31A642B01D9032383E1BB
:102AF400364B1B6803F48073002BF0D07B68DB68D3
:102B0400012B06D12E4B1B6A2D4A43F0010313629D
:102B14002DE07B68DB68002B0CD1294B1B6A284A0B
:102B240023F001031362264B1B6A254A23F0040396
:102B340013621CE07B68DB68052B0CD1204B1B6AFD
:102B44001F4A43F0040313621D4B1B6A1C4A43F0E3
:102B5400010313620BE01A4B1B6A194A23F00103A9
:102B64001362174B1B6A164A23F0040313627B6833
:102B7400DB68002B15D0FEF717F838610AE0FEF782
:102B840013F802463B69D31A41F28832934201D9C1
:102B9400032331E10A4B1B6A03F00203002BEED03E
:102BA4001CE0FEF701F8386112E0FDF7FDFF024674
:102BB4003B69D31A41F28832934209D903231BE1BA
:102BC4000010024014480008800442420070004093
:102BD4008B4B1B6A03F00203002BE6D1FB7D012B18
:102BE40005D1874BDB69864A23F08053D3617B6828
:102BF400DB69002B0CD07B68DB69012B08D07B6878
:102C0400DB69022B04D040F2AD217E48FDF7D1FDF3
:102C14007B68DB69002B00F0EE80794B5B6803F086
:102C24000C03082B00F0CE807B68DB69022B40F09C
:102C3400B2807B681B6A002B09D07B681B6AB3F5E2
:102C4400803F04D040F2B6216E48FDF7B2FD7B68A8
:102C54005B6A002B4AD07B685B6AB3F5802F45D052
:102C64007B685B6AB3F5002F40D07B685B6AB3F581
:102C7400402F3BD07B685B6AB3F5801F36D07B68FE
:102C84005B6AB3F5A01F31D07B685B6AB3F5C01FE4
:102C94002CD07B685B6AB3F5E01F27D07B685B6A46
:102CA400B3F5001F22D07B685B6AB3F5101F1DD0FB
:102CB4007B685B6AB3F5201F18D07B685B6AB3F549
:102CC400301F13D07B685B6AB3F5401F0ED07B685E
:102CD4005B6AB3F5501F09D07B685B6AB3F5601F6C
:102CE40004D040F2B7214748FDF763FD464B00226C
:102CF4001A60FDF759FF386108E0FDF755FF0246F9
:102D04003B69D31A022B01D9032375E03C4B1B68A2
:102D140003F00073002BF0D17B681B6AB3F5803F8E
:102D240016D17B689B68002B09D07B689B68B3F540
:102D3400003F04D040F2CD213248FDF73AFD304B3C
:102D44005B6823F400327B689B682D4913434B6016
:102D54002B4B5B6823F474127B68196A7B685B6A8B
:102D64000B43274913434B60274B01221A60FDF79D
:102D74001BFF386108E0FDF717FF02463B69D31AD1
:102D8400022B01D9032337E01D4B1B6803F00073AA
:102D9400002BF0D02FE01C4B00221A60FDF704FF3B
:102DA400386108E0FDF700FF02463B69D31A022BA5
:102DB40001D9032320E0124B1B6803F00073002B9E
:102DC400F0D118E07B68DB69012B01D1012313E00A
:102DD4000B4B5B68FB60FB6803F480327B681B6A07
:102DE4009A4206D1FB6803F470127B685B6A9A42CC
:102DF40001D0012300E0002318461837BD4680BDEA
:102E040000100240144800086000424280B584B0BB
:102E140000AF786039607B68002B01D1012376E133
:102E24007B681B6803F00103002B16D17B681B68C9
:102E340003F00203002B10D17B681B6803F004032A
:102E4400002B0AD17B681B6803F00803002B04D114
:102E540040F236317448FDF7ACFC3B68002B0AD0D5
:102E64003B68012B07D03B68022B04D040F237317A
:102E74006D48FDF79EFC6D4B1B6803F007033A6831
:102E84009A4210D9694B1B6823F0070267493B68D3
:102E940013430B60654B1B6803F007033A689A42BF
:102EA40001D0012333E17B681B6803F00203002B8C
:102EB40049D07B681B6803F00403002B05D05C4BEE
:102EC4005B685B4A43F4E06353607B681B6803F010
:102ED4000803002B05D0564B5B68554A43F46053F6
:102EE40053607B689B68002B24D07B689B68802B95
:102EF40020D07B689B68902B1CD07B689B68A02BA0
:102F040018D07B689B68B02B14D07B689B68C02B5F
:102F140010D07B689B68D02B0CD07B689B68E02B1F
:102F240008D07B689B68F02B04D040F25D313E48AA
:102F3400FDF73FFC3E4B5B6823F0F0027B689B6827
:102F44003B4913434B607B681B6803F00103002B70
:102F540051D07B685B68002B0CD07B685B68012BCD
:102F640008D07B685B68022B04D04FF459712E485B
:102F7400FDF71FFC7B685B68012B07D12C4B1B689A
:102F840003F40033002B15D10123C0E07B685B6898
:102F9400022B07D1264B1B6803F00073002B09D1C9
:102FA4000123B4E0224B1B6803F00203002B01D180
:102FB4000123ACE01E4B5B6823F003027B685B6873
:102FC4001B4913434B60FDF7EFFDF8600AE0FDF782
:102FD400EBFD0246FB68D31A41F28832934201D9D1
:102FE400032394E0124B5B6803F00C027B685B687C
:102FF4009B009A42EBD10D4B1B6803F007033A6820
:103004009A4217D2094B1B6823F0070207493B6811
:1030140013430B60054B1B6803F007033A689A429D
:1030240008D0012373E000BF1448000800200240C8
:10303400001002407B681B6803F00403002B25D0BA
:103044007B68DB68002B18D07B68DB68B3F5806F86
:1030540013D07B68DB68B3F5A06F0ED07B68DB68A8
:10306400B3F5C06F09D07B68DB68B3F5E06F04D0BB
:1030740040F2A2312848FDF79CFB284B5B6823F4FF
:10308400E0627B68DB68254913434B607B681B68FF
:1030940003F00803002B26D07B681B69002B18D093
:1030A4007B681B69B3F5806F13D07B681B69B3F52C
:1030B400A06F0ED07B681B69B3F5C06F09D07B6825
:1030C4001B69B3F5E06F04D040F2A9311248FDF753
:1030D40070FB124B5B6823F460527B681B69DB0056
:1030E4000E4913434B6000F021F802460B4B5B681A
:1030F4001B0903F00F030A49CB5C22FA03F3094AC4
:103104001360094B1B681846FDF70CFD0023184695
:103114001037BD4680BD00BF1448000800100240AF
:10312400104A0008000000200400002080B487B08A
:1031340000AF0023FB600023BB6000237B610023FE
:103144007B6000233B611E4B5B68FB60FB6803F004
:103154000C03042B02D0082B03D027E0194B3B614E
:1031640027E0FB689B0C03F00F03174AD35C7B60DA
:10317400FB6803F48033002B10D0114B5B685B0CAD
:1031840003F00103114AD35CBB607B680D4A03FB67
:1031940002F2BB68B2FBF3F37B6104E07B680C4A88
:1031A40002FB03F37B617B693B6102E0054B3B61FE
:1031B40000BF3B6918461C37BD4680BC704700BF42
:1031C4000010024000127A00284A0008384A000819
:1031D40000093D0080B400AF024B1B681846BD4691
:1031E40080BC70470000002080B500AFFFF7F2FFFD
:1031F4000246054B5B681B0A03F007030349CB5CDB
:1032040022FA03F3184680BD00100240204A000849
:1032140080B485B000AF78600A4B1B680A4AA2FBF1
:1032240003235B0A7A6802FB03F3FB6000BFFB68BD
:103234005A1EFA60002BF9D100BF00BF1437BD46F7
:1032440080BC704700000020D34D621080B586B06A
:1032540000AF786000233B610023FB607B681B6840
:1032640003F00103002B1BD17B681B6803F00203EE
:10327400002B15D17B681B6803F00403002B0FD1CE
:103284007B681B6803F00803002B09D17B681B686B
:1032940003F01003002B03D16A217348FDF789FA68
:1032A4007B681B6803F00103002B00F0958000236A
:1032B400FB757B685B68002B12D07B685B68B3F599
:1032C400807F0DD07B685B68B3F5007F08D07B6896
:1032D4005B68B3F5407F03D072216348FDF769FA58
:1032E400624BDB6903F08053002B0DD15F4BDB692C
:1032F4005E4A43F08053D3615C4BDB6903F0805337
:10330400BB60BB680123FB75594B1B6803F48073D6
:10331400002B18D1564B1B68554A43F48073136035
:10332400FDF742FC386108E0FDF73EFC02463B69CC
:10333400D31A642B01D9032392E04D4B1B6803F489
:103344008073002BF0D0494B1B6A03F44073FB607D
:10335400FB68002B2ED07B685B6803F44073FA682B
:103364009A4227D0414B1B6A23F44073FB60414BC4
:1033740001221A603F4B00221A603C4AFB68136228
:10338400FB6803F00103002B14D0FDF70DFC38613A
:103394000AE0FDF709FC02463B69D31A41F2883280
:1033A400934201D903235BE0304B1B6A03F0020311
:1033B400002BEED02D4B1B6A23F440727B685B68B4
:1033C4002A4913430B62FB7D012B05D1274BDB6993
:1033D400264A23F08053D3617B681B6803F0020301
:1033E400002B1FD07B689B68002B12D07B689B68E6
:1033F400B3F5804F0DD07B689B68B3F5004F08D0C0
:103404007B689B68B3F5404F03D0B7211648FDF79E
:10341400D0F9164B5B6823F440427B689B681349E0
:1034240013434B607B681B6803F01003002B16D01A
:103434007B685B69B3F5800F08D07B685B69002B00
:1034440004D040F213110848FDF7B3F9074B5B6849
:1034540023F480027B685B69044913434B600023B7
:1034640018461837BD4680BD784800080010024051
:10347400007000404004424280B582B000AF7860E2
:103484007B68002B01D1012375E17B681B686E4AC0
:1034940093420ED07B681B686C4A934209D07B68C8
:1034A4001B686B4A934204D04FF4AB716948FDF733
:1034B40080F97B685B68002B09D07B685B68B3F597
:1034C400827F04D040F257116248FDF772F97B689D
:1034D4009B68002B0ED07B689B68B3F5806F09D086
:1034E4007B689B68B3F5004F04D04FF4AC71594826
:1034F400FDF75FF97B68DB68B3F5006F08D07B6884
:10350400DB68002B04D040F259115248FDF751F901
:103514007B689B69B3F5007F0DD07B689B69002BAA
:1035240009D07B689B69B3F5802F04D04FF4AD714B
:103534004848FDF73EF97B68DB69002B20D07B68A7
:10354400DB69082B1CD07B68DB69102B18D07B68E7
:10355400DB69182B14D07B68DB69202B10D07B68C7
:10356400DB69282B0CD07B68DB69302B08D07B68A7
:10357400DB69382B04D040F25B113648FDF719F9AA
:103584007B681B6A002B08D07B681B6A802B04D0E5
:103594004FF4AE712F48FDF70CF97B685B6A002B82
:1035A40004D040F25F112B48FDF703F97B685B6A96
:1035B400002B51D17B681B69002B08D07B681B69E9
:1035C400022B04D04FF4B1712248FDF7F2F87B6866
:1035D4005B69002B08D07B685B69012B04D040F247
:1035E40063111C48FDF7E5F87B685B68B3F5827FDF
:1035F40025D17B68DB69002B59D07B68DB69082BFC
:1036040055D07B68DB69102B51D07B68DB69182BA4
:103614004DD07B68DB69202B49D07B68DB69282B84
:1036240045D07B68DB69302B41D07B68DB69382B64
:103634003DD040F267110748FDF7BBF837E07B68DF
:103644000022DA6133E000BF00300140003800405E
:10365400003C0040E04800087B68DB69002B20D078
:103664007B68DB69082B1CD07B68DB69102B18D0C6
:103674007B68DB69182B14D07B68DB69202B10D0A6
:103684007B68DB69282B0CD07B68DB69302B08D086
:103694007B68DB69382B04D040F271113848FDF7A0
:1036A40088F87B6800221A617B6800225A617B6873
:1036B40000229A627B6893F85130DBB2002B06D16A
:1036C4007B68002283F850207868FDF7B3F87B68A4
:1036D400022283F851207B681B681A687B681B6888
:1036E40022F040021A607B685B6803F482727B6894
:1036F4009B6803F404431A437B68DB6803F40063A8
:103704001A437B681B6903F002031A437B685B69F5
:1037140003F001031A437B689B6903F400731A43A3
:103724007B68DB6903F038031A437B681B6A03F088
:10373400800342EA03017B689B6A03F400527B68BE
:103744001B680A431A607B689B691A0C7B681B68B8
:1037540002F004025A607B681B68DA697B681B68A4
:1037640022F40062DA617B6800225A657B680122D8
:1037740083F85120002318460837BD4680BD00BF9A
:10378400E048000880B582B000AF78607B68002B09
:1037940001D10123B5E07B681B685C4A934227D0C2
:1037A4007B681B685A4A934222D07B681B68B3F13A
:1037B400804F1DD07B681B68564A934218D07B68A3
:1037C4001B68554A934213D07B681B68534A934243
:1037D4000ED07B681B68524A934209D07B681B68F1
:1037E400504A934204D040F213114F48FCF7E1FFD2
:1037F4007B689B68002B14D07B689B68102B10D0CF
:103804007B689B68202B0CD07B689B68402B08D07E
:103814007B689B68602B04D04FF48A714248FCF7A4
:10382400C8FF7B681B69002B0ED07B681B69B3F54E
:10383400807F09D07B681B69B3F5007F04D040F218
:1038440015113948FCF7B5FF7B68DB68002B04D001
:103854007B68DB68B3F5803F04D34FF48B71324847
:10386400FCF7A7FF7B689B69002B08D07B689B69EA
:10387400802B04D040F217112B48FCF79AFF7B6889
:1038840093F83D30DBB2002B06D17B68002283F82D
:103894003C207868FDF7E4F87B68022283F83D2039
:1038A4007B681A687B6804331946104600F08AFC6A
:1038B4007B68012283F846207B68012283F83E203E
:1038C4007B68012283F83F207B68012283F8402033
:1038D4007B68012283F841207B68012283F842201F
:1038E4007B68012283F843207B68012283F844200B
:1038F4007B68012283F845207B68012283F83D2000
:10390400002318460837BD4680BD00BF002C014087
:10391400003401400004004000080040000C004056
:1039240000100040001400404449000880B582B0F3
:1039340000AF78607B681B681B6903F00203022BED
:1039440022D17B681B68DB6803F00203022B1BD1C6
:103954007B681B686FF002021A617B6801221A7788
:103964007B681B689B6903F00303002B03D0786812
:1039740000F00CFC05E0786800F0FFFB786800F0CC
:103984000EFC7B6800221A777B681B681B6903F0B6
:103994000403042B22D17B681B68DB6803F0040357
:1039A400042B1BD17B681B686FF004021A617B68CF
:1039B40002221A777B681B689B6903F44073002B0F
:1039C40003D0786800F0E2FB05E0786800F0D5FBEE
:1039D400786800F0E4FB7B6800221A777B681B6838
:1039E4001B6903F00803082B22D17B681B68DB6882
:1039F40003F00803082B1BD17B681B686FF00802D7
:103A04001A617B6804221A777B681B68DB6903F000
:103A14000303002B03D0786800F0B8FB05E0786856
:103A240000F0ABFB786800F0BAFB7B6800221A77E1
:103A34007B681B681B6903F01003102B22D17B6881
:103A44001B68DB6803F01003102B1BD17B681B6819
:103A54006FF010021A617B6808221A777B681B6872
:103A6400DB6903F44073002B03D0786800F08EFB0D
:103A740005E0786800F081FB786800F090FB7B68D3
:103A840000221A777B681B681B6903F00103012B72
:103A94000ED17B681B68DB6803F00103012B07D19F
:103AA4007B681B686FF001021A61786800F05CFBA8
:103AB4007B681B681B6903F08003802B0ED17B6835
:103AC4001B68DB6803F08003802B07D17B681B68CD
:103AD4006FF080021A61786800F05DFD7B681B68F6
:103AE4001B6903F04003402B0ED17B681B68DB6825
:103AF40003F04003402B07D17B681B686FF0400242
:103B04001A61786800F054FB7B681B681B6903F03A
:103B14002003202B0ED17B681B68DB6803F0200395
:103B2400202B07D17B681B686FF020021A6178682C
:103B340000F028FD00BF0837BD4680BD80B584B0C5
:103B440000AF786039600023FB737B6893F83C30E6
:103B5400012B01D10223F6E27B68012283F83C2089
:103B64007B68022283F83D203B681B68B3F5805FC5
:103B740029D03B681B68702B25D03B681B68B3F5C4
:103B8400005F20D03B681B68402B1CD03B681B683F
:103B9400502B18D03B681B68602B14D03B681B6803
:103BA400002B10D03B681B68102B0CD03B681B68A3
:103BB400202B08D03B681B68302B04D041F2BE4157
:103BC4007C48FCF7F6FD7B681B689B68BB60BB68A0
:103BD40023F07703BB60BB6823F47F43BB607B683F
:103BE4001B68BA689A603B681B68B3F5005F00F015
:103BF400F180B3F5005F00F29982B3F5805F2DD0B8
:103C0400B3F5805F00F29282702B5DD0702B00F2CE
:103C14008D82602B00F0A581602B00F28782502BEF
:103C240000F04981502B00F28182402B00F0FC818E
:103C3400402B00F27B82302B00F04C82302B00F2C0
:103C44007582202B00F04682202B00F26F82002B1D
:103C540000F04082102B00F03D8267E27B681B6815
:103C6400554A934200F065827B681B68534A93422D
:103C740000F05F827B681B68B3F1804F00F05982CB
:103C84007B681B684E4A934200F053827B681B6832
:103C94004C4A934200F04D827B681B684A4A934227
:103CA40000F047827B681B68484A934200F04182D7
:103CB4007B681B68464A934200F03B8241F2CA414A
:103CC4003C48FCF776FD34E27B681B683A4A934231
:103CD4001DD07B681B68394A934218D07B681B68E7
:103CE400B3F1804F13D07B681B68354A93420ED0E2
:103CF4007B681B68334A934209D07B681B68324A4D
:103D0400934204D041F2D1412A48FCF752FD3B686A
:103D14009B68002B13D03B689B68B3F5805F0ED083
:103D24003B689B68B3F5005F09D03B689B68B3F5BB
:103D3400405F04D041F2D4411E48FCF73AFD3B6891
:103D44005B68B3F5004F14D03B685B68002B10D060
:103D54003B685B68002B0CD03B685B68022B08D087
:103D64003B685B680A2B04D041F2D5411148FCF74B
:103D740020FD3B68DB680F2B04D941F2D6410D4886
:103D8400FCF717FD7B6818683B6899683B685A68BC
:103D94003B68DB6800F007FB7B681B689B68BB60C3
:103DA400BB6843F07703BB607B681B68BA689A60A2
:103DB400C0E100BF44490008002C01400034014028
:103DC4000004004000080040000C004000100040C7
:103DD400001400407B681B688D4A93421DD07B68A9
:103DE4001B688C4A934218D07B681B68B3F1804FE0
:103DF40013D07B681B68884A93420ED07B681B688B
:103E0400864A934209D07B681B68854A934204D052
:103E140041F2E9418348FCF7CCFC3B689B68002BEA
:103E240013D03B689B68B3F5805F0ED03B689B68FA
:103E3400B3F5005F09D03B689B68B3F5405F04D0DD
:103E440041F2EC417748FCF7B4FC3B685B68B3F59E
:103E5400004F14D03B685B68002B10D03B685B6854
:103E6400002B0CD03B685B68022B08D03B685B6876
:103E74000A2B04D041F2ED416A48FCF79AFC3B68F6
:103E8400DB680F2B04D941F2EE416648FCF791FC44
:103E94007B6818683B6899683B685A683B68DB68CC
:103EA40000F081FA7B681B689A687B681B6842F49F
:103EB40080429A603EE17B681B68554A93421DD05C
:103EC4007B681B68534A934218D07B681B68B3F124
:103ED400804F13D07B681B684F4A93420ED07B6897
:103EE4001B684E4A934209D07B681B684C4A934234
:103EF40004D041F2FD414B48FCF75BFC3B685B6836
:103F0400B3F5004F14D03B685B68002B10D03B68BE
:103F14005B68002B0CD03B685B68022B08D03B68C5
:103F24005B680A2B04D04FF4A8513E48FCF741FCCF
:103F34003B68DB680F2B04D941F201513948FCF787
:103F440038FC7B6818683B6859683B68DB681A462C
:103F540000F0B2F97B681B685021184600F009FA9A
:103F6400E8E07B681B682A4A93421DD07B681B6883
:103F7400284A934218D07B681B68B3F1804F13D052
:103F84007B681B68244A93420ED07B681B68234AD3
:103F9400934209D07B681B68214A934204D041F2C2
:103FA4000D512048FCF705FC3B685B68B3F5004FF6
:103FB40014D03B685B68002B10D03B685B68002B17
:103FC4000CD03B685B68022B08D03B685B680A2B0B
:103FD40004D041F210511348FCF7EBFB3B68DB685B
:103FE4000F2B04D941F211510E48FCF7E2FB7B6818
:103FF40018683B6859683B68DB681A4600F08AF920
:104004007B681B686021184600F0B3F992E000BF9A
:10401400002C01400034014000040040000800402E
:10402400000C0040444900087B681B68484A9342DE
:104034001DD07B681B68474A934218D07B681B6875
:10404400B3F1804F13D07B681B68434A93420ED070
:104054007B681B68414A934209D07B681B68404ACD
:10406400934204D041F21D513E48FCF7A2FB3B6849
:104074005B68B3F5004F14D03B685B68002B10D02D
:104084003B685B68002B0CD03B685B68022B08D054
:104094003B685B680A2B04D04FF4A9513148FCF704
:1040A40088FB3B68DB680F2B04D941F221512D4872
:1040B400FCF77FFB7B6818683B6859683B68DB68E2
:1040C4001A4600F0F9F87B681B684021184600F096
:1040D40050F92FE07B681B681D4A93421DD07B6812
:1040E4001B681C4A934218D07B681B68B3F1804F4D
:1040F40013D07B681B68184A93420ED07B681B68F8
:10410400164A934209D07B681B68154A934204D02F
:1041140041F230511348FCF74CFB7B681A683B684A
:104124001B681946104600F024F903E00123FB73D1
:1041340000E000BF7B68012283F83D207B680022F9
:1041440083F83C20FB7B18461037BD4680BD00BF7A
:10415400002C0140003401400004004000080040ED
:10416400000C00404449000880B483B000AF78607C
:1041740000BF0C37BD4680BC704780B483B000AF2D
:10418400786000BF0C37BD4680BC704780B483B0F4
:1041940000AF786000BF0C37BD4680BC704780B468
:1041A40083B000AF786000BF0C37BD4680BC704759
:1041B40080B483B000AF786000BF0C37BD4680BCCC
:1041C4007047000080B485B000AF786039607B68C8
:1041D4001B68FB607B68334A934213D07B68324A86
:1041E40093420FD07B68B3F1804F0BD07B682F4A8A
:1041F400934207D07B682E4A934203D07B682D4AB2
:10420400934208D1FB6823F07003FB603B685B6852
:10421400FA681343FB607B68224A934213D07B689D
:10422400214A93420FD07B68B3F1804F0BD07B6857
:104234001E4A934207D07B681D4A934203D07B6891
:104244001C4A934208D1FB6823F44073FB603B682B
:10425400DB68FA681343FB60FB6823F080023B6869
:104264005B691343FB607B68FA681A603B689A6871
:104274007B68DA623B681A687B689A627B68094AE1
:10428400934203D07B68084A934203D13B681A697E
:104294007B681A637B6801225A6100BF1437BD46EC
:1042A40080BC7047002C01400034014000040040F1
:1042B40000080040000C004080B487B000AFF860F4
:1042C400B9607A60FB681B6A7B61FB681B6A23F038
:1042D4000102FB681A62FB689B693B613B6923F03E
:1042E400F0033B617B681B013A6913433B617B69C3
:1042F40023F00A037B617A69BB6813437B61FB6823
:104304003A699A61FB687A691A6200BF1C37BD4634
:1043140080BC704780B487B000AFF860B9607A6041
:10432400FB681B6A7B61FB681B6A23F01002FB6855
:104334001A62FB689B693B613B6923F470433B61F0
:104344007B681B033A6913433B617B6923F0A00339
:104354007B61BB681B017A6913437B61FB683A6923
:104364009A61FB687A691A6200BF1C37BD4680BC3B
:10437400704780B485B000AF786039607B689B6813
:10438400FB60FB6823F07003FB603A68FB6813432F
:1043940043F00703FB607B68FA689A6000BF143738
:1043A400BD4680BC704780B487B000AFF860B96088
:1043B4007A603B60FB689B687B617B6923F47F4385
:1043C4007B613B681A027B681A43BB6813437A69B2
:1043D40013437B61FB687A699A6000BF1C37BD4652
:1043E40080BC704780B584B000AF786039607B686A
:1043F4001B685C4A934227D07B681B685A4A9342E5
:1044040022D07B681B68B3F1804F1DD07B681B688A
:10441400564A934218D07B681B68554A934213D07E
:104424007B681B68534A93420ED07B681B68524AD0
:10443400934209D07B681B68504A934204D040F2EF
:10444400B4714F48FCF7B5F93B681B68002B20D0CA
:104454003B681B68102B1CD03B681B68202B18D0B2
:104464003B681B68302B14D03B681B68402B10D072
:104474003B681B68502B0CD03B681B68602B08D032
:104484003B681B68702B04D040F2B5713C48FCF7C4
:1044940090F93B685B68802B08D03B685B68002B15
:1044A40004D040F2B6713648FCF783F97B6893F880
:1044B4003C30012B01D1022350E07B68012283F8B8
:1044C4003C207B68022283F83D207B681B685B6884
:1044D400FB607B681B689B68BB60FB6823F0700310
:1044E400FB603B681B68FA681343FB607B681B68CE
:1044F400FA685A607B681B681A4A934218D07B6832
:104504001B68194A934213D07B681B68B3F1804F30
:104514000ED07B681B68154A934209D07B681B68E0
:10452400134A934204D07B681B68124A93420CD10D
:10453400BB6823F08003BB603B685B68BA681343C5
:10454400BB607B681B68BA689A607B68012283F849
:104554003D207B68002283F83C2000231846103756
:10456400BD4680BD002C01400034014000040040E1
:1045740000080040000C00400010004000140040FF
:10458400A849000880B483B000AF786000BF0C373E
:10459400BD4680BC704780B483B000AF786000BF74
:1045A4000C37BD4680BC704770B500260C4D0D4CD1
:1045B400641BA410A64209D100F022F800260A4D7B
:1045C4000A4C641BA410A64205D170BD55F8043BE7
:1045D40098470136EEE755F8043B98470136F2E771
:1045E4003C4A00083C4A00083C4A0008404A00088B
:1045F40003460244934200D1704703F8011BF9E7D4
:10460400F8B500BFF8BC08BC9E467047F8B500BFBB
:08461400F8BC08BC9E4670478B
:10461C00443A2F6465736B746F702F524D2F323484
:10462C002F4D594845524F2F506E65756D61746909
:10463C00634865726F2F53686F6F7465722F447285
:10464C0069766572732F53544D3332463178785FE7
:10465C0048414C5F4472697665722F5372632F73B5
:10466C00746D3332663178785F68616C5F61646356
:10467C002E630000443A2F6465736B746F702F5275
:10468C004D2F32342F4D594845524F2F506E657572
:10469C006D617469634865726F2F53686F6F7465D1
:1046AC00722F447269766572732F53544D333246B0
:1046BC003178785F48414C5F4472697665722F534C
:1046CC0072632F73746D3332663178785F68616C06
:1046DC005F63616E2E630000443A2F6465736B74E4
:1046EC006F702F524D2F32342F4D594845524F2F4A
:1046FC00506E65756D617469634865726F2F536890
:10470C006F6F7465722F447269766572732F535490
:10471C004D3332463178785F48414C5F447269764C
:10472C0065722F5372632F73746D333266317878E0
:10473C005F68616C5F636F727465782E6300000054
:10474C00443A2F6465736B746F702F524D2F323453
:10475C002F4D594845524F2F506E65756D617469D8
:10476C00634865726F2F53686F6F7465722F447254
:10477C0069766572732F53544D3332463178785FB6
:10478C0048414C5F4472697665722F5372632F7384
:10479C00746D3332663178785F68616C5F6770690D
:1047AC006F2E6300443A2F6465736B746F702F52D5
:1047BC004D2F32342F4D594845524F2F506E657541
:1047CC006D617469634865726F2F53686F6F7465A0
:1047DC00722F447269766572732F53544D3332467F
:1047EC003178785F48414C5F4472697665722F531B
:1047FC0072632F73746D3332663178785F68616CD5
:10480C005F6932632E630000443A2F6465736B74E6
:10481C006F702F524D2F32342F4D594845524F2F18
:10482C00506E65756D617469634865726F2F53685E
:10483C006F6F7465722F447269766572732F53545F
:10484C004D3332463178785F48414C5F447269761B
:10485C0065722F5372632F73746D333266317878AF
:10486C005F68616C5F7263632E630000443A2F646F
:10487C0065736B746F702F524D2F32342F4D594816
:10488C0045524F2F506E65756D6174696348657242
:10489C006F2F53686F6F7465722F447269766572EF
:1048AC00732F53544D3332463178785F48414C5F07
:1048BC004472697665722F5372632F73746D333241
:1048CC00663178785F68616C5F7263635F65782EC0
:1048DC0063000000443A2F6465736B746F702F5241
:1048EC004D2F32342F4D594845524F2F506E657510
:1048FC006D617469634865726F2F53686F6F74656F
:10490C00722F447269766572732F53544D3332464D
:10491C003178785F48414C5F4472697665722F53E9
:10492C0072632F73746D3332663178785F68616CA3
:10493C005F7370692E630000443A2F6465736B7467
:10494C006F702F524D2F32342F4D594845524F2FE7
:10495C00506E65756D617469634865726F2F53682D
:10496C006F6F7465722F447269766572732F53542E
:10497C004D3332463178785F48414C5F44726976EA
:10498C0065722F5372632F73746D3332663178787E
:10499C005F68616C5F74696D2E630000443A2F642C
:1049AC0065736B746F702F524D2F32342F4D5948E5
:1049BC0045524F2F506E65756D6174696348657211
:1049CC006F2F53686F6F7465722F447269766572BE
:1049DC00732F53544D3332463178785F48414C5FD6
:1049EC004472697665722F5372632F73746D333210
:1049FC00663178785F68616C5F74696D5F65782E7D
:104A0C00630000000000000000000000010203042D
:104A1C000607080900000000010203040203040554
:104A2C00060708090A0B0C0D0E0F101001020000EE
:044A3C000902000863
:044A4000E501000884
:0C4A44000024F40010000000010000003D
:0400000508000AB134
:00000001FF
